:020000040800F2
:10000000380400209D01000803110008BF100008FB
:1000100001110008E50100080512000800000000B9
:100020000000000000000000000000002711000890
:10003000E701000800000000251100082911000850
:10004000B7010008B7010008B7010008B7010008B0
:10005000B7010008B7010008B7010008B7010008A0
:10006000B7010008B7010008B7010008B701000890
:10007000B7010008B7010008B7010008B701000880
:10008000B7010008B7010008B7010008B701000870
:10009000B7010008B7010008B7010008B701000860
:1000A000B7010008B7010008B7010008B701000850
:1000B000B7010008B701000800000000B701000800
:1000C000B70100080000000000000000B7010008B0
:1000D00000000000B7010008B7010008B7010008E0
:1000E000B7010008B7010008000000000000000090
:1000F0000000000000000000000000000000000000
:1001000000000000000000000000000000000000EF
:100110000000000000000000B7010008B70100085F
:1001200000000000000000000000000000000000CF
:1001300000000000000000000000000000000000BF
:10014000B7010008B701000800000000000000002F
:10015000000000000000000000000000000000009F
:10016000000000000000000000000000000000008F
:10017000000000000000000000000000000000007F
:1001800000000000B7010008DFF80CD000F018F8FC
:100190000048004725120008380400200648804720
:1001A00006480047FEE7FEE7FEE7FEE7FEE7FEE75C
:1001B000FEE7FEE7FEE7FEE79D1100088901000863
:1001C000064C074D06E0E06840F0010394E80700A4
:1001D00098471034AC42F6D3FFF7DAFF001300085B
:1001E00020130008FEE77047F0B590F8205004682F
:1001F000A468012D05D0022D03D0416A41F480216D
:1002000053E014F0406F01D1E5004BD5C4F3016415
:10021000022C03D9416A41F4000146E00125A540C2
:100220001D608D684FF4C0739DB1CE6835434E6834
:1002300045EAC605066803EB0417F5514FF4C2758D
:10024000076805EB04150E697E51097D012905D06B
:1002500009E00E88CD6845EA4655EBE701684E593E
:1002600046F480764E511179D2F805504FF4C67697
:1002700041EA0525016806EB04168D511178D2F884
:1002800001204FF4C47541EA0221026805EB041510
:100290005151006803EB0411425842F001024250F0
:1002A0000020F0BD416A41F4001141620120F0BD1F
:1002B00010B590F820300268012B07D0022B05D032
:1002C000416A41F480214162012010BDD2F8000250
:1002D00040F00100C2F80002087D00F01F03012079
:1002E0009840D2F81C328343C2F81C32CB69B3B9B0
:1002F000D2F80C328343C2F80C328C894B6864F319
:100300001F434C6902EBC404C4F840320C890B68EB
:1003100064F31F434C6902EBC404C4F84432CB6954
:10032000012B16D1D2F80C320343C2F80C320C88E0
:100330004B6864F31F434C6902EBC404C4F84032B9
:100340000C89CB6864F31F434C6902EBC404C4F806
:1003500044328B69002BD2F804320FD053EA0003E9
:10036000C2F804320B69002BD2F8143208D00343D0
:10037000C2F81432096A012904D008E08343EFE788
:100380008343F5E7D2F81C120143C2F81C12D2F8DD
:10039000000220F00100C2F80002002010BD30B5BC
:1003A00090F82040012C05D0022C03D0416A41F482
:1003B00080215DE00468002955D02469A40754D049
:1003C0004FF4D874056804EB01142D5915F0040599
:1003D000956005682D594ED0ED08556005682C597B
:1003E000C4F34004D4604FF4DA74056804EB0114DC
:1003F0002D5905F00F05156105682D59C5F3072521
:10040000956105682C59240C54614FF4DC72046822
:1004100002EB0112A4581C700468A458240A5C70F2
:100420000468A458240C9C700468A258120EDA7058
:100430004FF4DE72046802EB0112A4581C710468C8
:10044000A458240A5C710468A458240C9C710468A4
:10045000A258120EDA71006881B1016941F02001E1
:100460000161002030BDE468A8E7416A41F4001151
:100470004162012030BD6D0D1560AFE7C16841F0EC
:100480002001C160EDE770B5040003D094F82000AE
:1004900010B104E0012070BD204600F081F8206812
:1004A000016821F00201016000F090F9054605267F
:1004B00004E000F08BF9401B0A2811D8206840683E
:1004C0008007F6D42068016841F00101016000F066
:1004D0007DF905460BE000F079F9401B0A2806D9A2
:1004E000606A40F40030606284F82060D2E72068DF
:1004F0004068C007EFD0207E0128206801683DD009
:1005000021F080010160607E01282068016838D0F8
:1005100021F040010160A07E01282068016833D0ED
:1005200021F020010160E07E0128206801682ED0C2
:1005300041F010010160207F01282068016829D066
:1005400021F008010160607F01282068016824D043
:1005500021F004010160D4E902010843D4E9041246
:10056000114308436168491E08432168C86100209F
:100570006062012084F82000002070BD41F08001FD
:10058000C0E741F04001C5E741F02001CAE721F092
:100590001001CFE741F00801D4E741F00401D9E7A9
:1005A00000B500680E4987B0884217D10D48C1696F
:1005B00041F00071C161C069694600F000700590AA
:1005C0004FF4C050009002200190002002900320C0
:1005D000039009200490C00600F032F807B000BD77
:1005E000006400400010024070B5044690F82000FE
:1005F000012804D0606A40F40020606218E0022004
:1006000084F820002068016821F00101016000F0F9
:10061000DDF805460EE000BF00F0D8F8401B0A28C0
:1006200008D9606A40F400306062052084F8200038
:10063000012070BD20684068C007EDD1606270BDC8
:100640002DE9F84FDFF860B100234FF0010C4FF0B7
:10065000030A4FF00F090BF1040E9DE00CFA03F6AC
:10066000344022007ED04C68022C01D0122C0ED1D6
:10067000DC0800EB8408D8F820405D07EF0E09FA8B
:1006800007F5AC430D69BD402543C8F82050076805
:100690005D0091F804800AFA05F408F00308A74306
:1006A00008FA05F848EA0708C0F800804F68012FEB
:1006B00005D0022F03D0112F01D0122F11D187683E
:1006C000D1F80C80A74308FA05F848EA0708C0F8F3
:1006D00008804768B7430E79C6F300169E403E4334
:1006E0004660C668A6438C68AC403443C4604C681E
:1006F000E40050D52D4CA56945F00105A561A4691C
:1007000023F0030504F001040094294C2E19B46869
:100710009D072F0F09FA07F5AC43B0F1904F04D0B5
:10072000244DA84203D101250CE000250AE0224D0A
:10073000A84201D1022505E0204DA84201D10325A0
:1007400000E00525BD402543B560DBF800405D466F
:100750004E689443F60300D514432C607546DEF8CA
:10076000004000E017E04E689443B60300D5144300
:100770002C600D4D08352C684E689443F60200D568
:1007800014432C60084D0C352C684E689443B60217
:1007900000D514432C605B1C0A681446DA407FF4D1
:1007A0005DAFBDE8F88F000000040140001002407A
:1007B000000001400004004800080048000C004808
:1007C0000AB181617047816270470000014880680A
:1007D0007047000000000020024881680278114440
:1007E0008160704700000020074810B5016841F0A3
:1007F00010010160032000F089F8002000F006F8E5
:1008000000F024F8002010BD0020024070B50D4D0E
:1008100004464FF47A712878B1FBF0F00A49096870
:10082000B1FBF0F000F033FC48B9102C07D20022E5
:100830002146501E00F04AF800206C6070BD012077
:1008400070BD0000000000200C0000201E4808B50C
:10085000816941F001018161816901F0010100912B
:10086000C16941F08051C161C06900F080500090C1
:10087000032000F04BF8002211466FF00B0000F04F
:1008800025F8002211466FF00A0000F01FF8002240
:1008900011466FF0090000F019F800221146501FB0
:1008A00000F014F800221146101F00F00FF800228B
:1008B0001146901E00F00AF80022BDE808401146DB
:1008C000501E00F003B8000000100240F0B40E4BC0
:1008D0001B680C46C3F30223C3F10705042D00D99E
:1008E0000425191D072901D2002300E0DB1E012683
:1008F00006FA05F1491E214099409E40761E164099
:100900003143F0BC00F0FEBB0CED00E0064900F006
:10091000070208684FF6FF03184040EA0220034A26
:1009200010430860704700000CED00E00000FA057D
:100930002DE9F0470F46050069D04A4E306800F0B7
:100940000700B84209D2306820F007003843306011
:10095000306800F00700B84259D12878424C80072F
:1009600005D56068A96820F0F00008436060287829
:10097000C0073DD06968012001290DD0022923D08C
:100980005FF0020393FAA3F2B2FA82F242F020027D
:10099000520904D0226803E04FF40033F2E7626AA0
:1009A00093FAA3F3B3FA83F303F01F0398400242D0
:1009B0002DD0606820F0030008436060FFF706FF59
:1009C000804641F288390CE04FF00073DAE700BF4F
:1009D000FFF7FCFEA0EB0801494502D90320BDE862
:1009E000F0876068696800F00C00B0EB810FEFD110
:1009F000306800F00700B8420BD9306820F00700DB
:100A000038433060306800F00700B84201D0012060
:100A1000E5E72878400705D56068E96820F4E060DC
:100A2000084360602878000706D56068296920F4CB
:100A3000605040EAC100606000F022F86168F02276
:100A400092FAA2F201F0F001B2FA82F2D140074A22
:100A5000515CC840064908600020FFF7D7FE00201F
:100A6000BDE700000020024000100240F012000824
:100A70000C00002001480068704700000C000020B6
:100A8000144B10B55A68144802F00C0104291DD00B
:100A900008291BD14FF4701494FAA4F402F47011D5
:100AA000B4FA84F4E1400D4CDB6A615C0F2494FAE3
:100AB000A4F403F00F03B4FA84F4E340074C1034B9
:100AC000D203E35C03D5B0FBF3F0484310BD044808
:100AD000484310BD0010024000127A00D0120008F6
:100AE00000093D002DE9F84F040071D02078FB4D3E
:100AF000C0074FF0010625D068687704C0F3810075
:100B0000012807D06868C0F3810002281BD16868FB
:100B1000C00318D597FAA7F0B0FA80F040F0200093
:100B2000400901D0286800E0686A97FAA7F1B1FA95
:100B300081F101F01F0106FA01F1084265D06068F9
:100B40000028D2D061E06068B0F5803F0BD010B1D2
:100B5000B0F5A02F17D0286820F4803028602868CE
:100B600020F4802002E0286840F480302860E86AA1
:100B7000A16820F00F000843E862606820B3FFF727
:100B800025FE80460AE0286840F480202860EAE7D5
:100B9000FFF71CFEA0EB0800642872D897FAA7F0B4
:100BA000B0FA80F040F02000400901D0286800E051
:100BB000686A97FAA7F1B1FA81F101F01F0106FA0C
:100BC00001F10842E4D020E0FFF700FE804607E094
:100BD000C7E000BFFFF7FAFDA0EB08006428DCD8EF
:100BE00097FAA7F0B0FA80F040F02000400901D059
:100BF000286800E0686A97FAA7F1B1FA81F101F07C
:100C00001F0106FA01F10842E4D12078DFF8D08212
:100C100080074FF0000A4FF0020759D568684FF07F
:100C2000F80B10F00C0F07D06868C0F381000228A1
:100C30001BD16868C00318D497FAA7F0B0FA80F007
:100C400040F02000400901D0286800E0686A97FA67
:100C5000A7F1B1FA81F101F01F0106FA01F1084292
:100C60002BD0206901287CD127E0206988B396FA2F
:100C7000A6F0B0FA80F048F82060FFF7A7FD8146A3
:100C800006E055E1FFF7A2FDA0EB0900022884D899
:100C900097FAA7F0B0FA80F040F02000400901D0A8
:100CA000286800E0686A97FAA7F1B1FA81F101F0CB
:100CB0001F0106FA01F10842E4D028689BFAABF262
:100CC0006169B2FA82F220F0F8009140084328608E
:100CD00025E0FFE796FAA6F1B1FA81F148F821A0E4
:100CE000FFF774FD814605E0FFF770FDA0EB0900FA
:100CF0000228CCD897FAA7F0B0FA80F040F0200094
:100D0000400901D0286800E0686A97FAA7F1B1FAB3
:100D100081F101F01F0106FA01F10842E4D12078C7
:100D200000076AD5A069A0B396FAA6F0B0FA80F0E1
:100D300008EB8000C0F88064FFF748FD814605E0BD
:100D4000FFF744FDA0EB09000228A0D897FAA7F00E
:100D5000B0FA80F040F06000B6EB501F02D1286876
:100D60000CE077E197FAA7F0B0FA80F040F060006D
:100D7000B7EB501F01D1286A00E0686A97FAA7F123
:100D8000B1FA81F101F01F0106FA01F21042D7D049
:100D900033E0FFE796FAA6F0B0FA80F008EB8000A7
:100DA000C0F880A4FFF712FD814605E0FFF70EFDB5
:100DB000A0EB090002289CD897FAA7F0B0FA80F0BF
:100DC00040F06000B6EB501F01D128680BE097FAA5
:100DD000A7F0B0FA80F040F06000B7EB501F01D1EF
:100DE000286A00E0686A97FAA7F1B1FA81F101F088
:100DF0001F0106FA01F21042D8D12078400774D5BD
:100E0000E8694FF00009C00009D4E86940F080505B
:100E1000E861E8694FF0010900F080500090314826
:100E20000168C90512D4016841F480710160FFF7BF
:100E3000CDFC834606E000BFFFF7C8FCA0EB0B002B
:100E4000642875D827480068C005F5D5E0680128F2
:100E50000AD008B1052811D0286A20F001002862C4
:100E6000286A20F0040002E0286A40F001002862AD
:100E7000E068C8B3FFF7AAFC83460DE0286A40F09B
:100E800004002862F0E700BFFFF7A0FCA0EB0B0115
:100E900041F2883081424BD897FAA7F0B0FA80F03F
:100EA00040F04000B6EB501F01D128680BE097FAE4
:100EB000A7F0B0FA80F040F04000B7EB501F01D12E
:100EC000286A00E0686A97FAA7F1B1FA81F101F0A7
:100ED0001F0106FA01F21042D6D035E000100240A0
:100EE000000042420070004000E034E0FFF76EFC7A
:100EF000834607E0FFF76AFCA0EB0B0141F2883064
:100F0000814215D897FAA7F0B0FA80F040F040007F
:100F1000B6EB501F01D128680CE097FAA7F0B0FAA1
:100F200080F040F04000B7EB501F02D1286A01E08A
:100F300083E0686A97FAA7F1B1FA81F101F01F0125
:100F400006FA01F21042D5D1B9F1000F03D0E869D9
:100F500020F08050E861E06980B36968C1F38101E5
:100F6000022977D04FF080714F00022809D091FA02
:100F7000A1F0B0FA80F048F820A0FFF727FC044663
:100F80005EE050468A4691FAA1F1B1FA81F1C1467C
:100F900048F82100FFF71AFC804605E0FFF716FC31
:100FA000A0EB0800022848D897FAA7F0B0FA80F022
:100FB00040F02000400902D0286801E056E0686A4D
:100FC00097FAA7F1B1FA81F101F01F0106FA01F1D8
:100FD0000842E3D1D4E908100843696821F4741188
:100FE000084368609AFAAAF0B0FA80F049F82060E5
:100FF000FFF7ECFB044604E0FFF7E8FB001B0228C8
:101000001BD897FAA7F0B0FA80F040F02000400912
:1010100001D0286800E0686A97FAA7F1B1FA81F177
:1010200001F01F0106FA01F10842E5D01EE000BF01
:10103000FFF7CCFB001B022802D90320BDE8F88F84
:1010400097FAA7F0B0FA80F040F02000400902D0F3
:10105000286801E00CE0686A97FAA7F1B1FA81F11B
:1010600001F01F0106FA01F10842E1D10020E5E795
:101070000120E3E74FF0E0210428086903D020F0C5
:1010800004000861704740F00400FAE7704710B5AB
:10109000401EB0F1807F01D3012010BD4FF0E0244D
:1010A00060610F21601700F02DF80020A06107207B
:1010B0002061002010BD10B5FFF7E8FF10BDFEE76E
:1010C0000E4810B50C49016010214160890681600D
:1010D00000214FF48022C0E903124FF44012426114
:1010E000017641768176C17601774177FFF7CBF9BA
:1010F000002800D0FEE710BD006400401000002072
:10110000FEE770470907090E002806DA00F00F0015
:1011100000F1E02080F8141D704700F1E02080F815
:10112000001470477047704710B5FFF755FBBDE8D6
:101130001040FFF7C0BF30B58FB0022501200490EA
:1011400000951020059000244FF44020CDE9084080
:1011500007956846FFF7C6FC00B1FEE70F200A902E
:10116000CDE90B544FF48060CDE90D4000210AA871
:10117000FFF7DEFB00B1FEE7FFF77CFC4FF47A716E
:10118000B0FBF1F0FFF783FF0420FFF773FF0022AD
:101190001146501EFFF79AFB0FB030BD144801688E
:1011A00041F4700101601348016841F001010160E0
:1011B0004168114A114041600168104A11400160C4
:1011C000016821F480210160416821F4FE01416041
:1011D000C16A21F00F01C162016B094A114001632C
:1011E000002181600249C003803908607047000017
:1011F00088ED00E0001002400CC07FF8FFFFF6FE13
:10120000CCFC00FFFEE702E008C8121F08C1002A5C
:10121000FAD170477047002001E001C1121F002A77
:10122000FBD17047A0B0FFF7DFFA00248DF83C40F7
:1012300001250D940A940C940420179401940094B1
:10124000049405940795069508950E90FFF773FF93
:101250001D48416941F4003141614069EE0300F4E9
:1012600000304FF090471F90002231463846FFF77C
:10127000A7FA1096CDE9115410A938461394FFF738
:10128000DFF9FFF71DFF1148FFF7FDF869460F482A
:10129000FFF70EF80D48FFF7A7F90F208DF8700043
:1012A0008DF871008DF872008DF873001EAB1CAACA
:1012B0000AA90648FEF798FF1DAB15AA00210348AE
:1012C000FFF76DF8F2E70000001002401000002068
:1012D00002030405060708090A0B0C0D0E0F101077
:1012E0000102030405060708090A0B0C0D0E0F1076
:1012F00000000000000000000102030406070809C6
:101300002013000800000020100000000612000852
:1013100030130008100000202804000016120008F6
:1013200001000000100000000000000000127A0020
:040000050800018965
:00000001FF
