:020000040800F2
:10000000A00400209D010008C31300087F1300080E
:10001000C1130008E5010008C51400080000000035
:10002000000000000000000000000000E7130008CE
:100030004D02000800000000E5130008E913000865
:10004000B7010008B7010008B7010008B7010008B0
:10005000B7010008B7010008B7010008B7010008A0
:10006000B7010008B7010008B7010008B701000890
:10007000B7010008B7010008B7010008B701000880
:10008000B7010008B7010008B70100082502000801
:10009000E9010008B7010008B7010008B70100082E
:1000A000B7010008B7010008B7010008B701000850
:1000B000B7010008B701000800000000B701000800
:1000C000B70100080000000000000000B7010008B0
:1000D00000000000B7010008B7010008B7010008E0
:1000E000B7010008B7010008000000000000000090
:1000F0000000000000000000000000000000000000
:1001000000000000000000000000000000000000EF
:100110000000000000000000B7010008B70100085F
:1001200000000000000000000000000000000000CF
:1001300000000000000000000000000000000000BF
:10014000B7010008B701000800000000000000002F
:10015000000000000000000000000000000000009F
:10016000000000000000000000000000000000008F
:10017000000000000000000000000000000000007F
:1001800000000000B7010008DFF80CD000F018F8FC
:1001900000480047E5140008A004002006488047F6
:1001A00006480047FEE7FEE7FEE7FEE7FEE7FEE75C
:1001B000FEE7FEE7FEE7FEE75D14000889010008A0
:1001C000064C074D06E0E06840F0010394E80700A4
:1001D00098471034AC42F6D3FFF7DAFF0816000850
:1001E00028160008FEE7000010B50B4800F092F951
:1001F0000A4B0B4A0021084800F018F9074B084A3F
:100200000021054800F012F9BDE81040034B044AF4
:100210000021014800F00AB91C000020080000205D
:100220008400002010B5054B054A0649064800F039
:1002300020F8BDE81040044800F06CB9040000202C
:10024000000000206C0000201C000020704790F887
:100250002020012A07D0022A05D0416A41F48021DA
:10026000416201207047006842690A4342610020F0
:100270007047F0B590F820500468A468012D05D0AF
:10028000022D03D0416A41F4802153E014F0406F05
:1002900001D1E5004BD5C4F30164022C03D9416AB6
:1002A00041F4000146E00125A5401D608D684FF432
:1002B000C0739DB1CE6835434E6845EAC6050668F1
:1002C00003EB0417F5514FF4C275076805EB0415ED
:1002D0000E697E51097D012905D009E00E88CD689F
:1002E00045EA4655EBE701684E5946F480764E5193
:1002F0001179D2F805504FF4C67641EA0525016818
:1003000006EB04168D511178D2F801204FF4C47514
:1003100041EA0221026805EB04155151006803EB24
:100320000411425842F0010242500020F0BD416ADF
:1003300041F4001141620120F0BD000010B590F8B9
:1003400020300268012B07D0022B05D0416A41F40E
:1003500080214162012010BDD2F8000240F001006E
:10036000C2F80002087D00F01F0301209840D2F877
:100370001C328343C2F81C32CB69B3B9D2F80C32B9
:100380008343C2F80C328C894B6864F31F434C6979
:1003900002EBC404C4F840320C890B6864F31F43B9
:1003A0004C6902EBC404C4F84432CB69012B16D16A
:1003B000D2F80C320343C2F80C320C884B6864F359
:1003C0001F434C6902EBC404C4F840320C89CB686B
:1003D00064F31F434C6902EBC404C4F844328B69D4
:1003E000002BD2F804320FD053EA0003C2F80432D3
:1003F0000B69002BD2F8143208D00343C2F8143230
:10040000096A012904D008E08343EFE78343F5E755
:10041000D2F81C120143C2F81C12D2F8000220F0DC
:100420000100C2F80002002010BD704730B590F8FE
:100430002040012C05D0022C03D0416A41F48021D8
:100440005DE00468002955D02469A40754D04FF416
:10045000D874056804EB01142D5915F00405956056
:1004600005682D594ED0ED08556005682C59C4F328
:100470004004D4604FF4DA74056804EB01142D597C
:1004800005F00F05156105682D59C5F30725956120
:1004900005682C59240C54614FF4DC72046802EB9B
:1004A0000112A4581C700468A458240A5C700468E3
:1004B000A458240C9C700468A258120EDA704FF4F1
:1004C000DE72046802EB0112A4581C710468A4587F
:1004D000240A5C710468A458240C9C710468A25816
:1004E000120EDA71006881B1016941F020010161E9
:1004F000002030BDE468A8E7416A41F40011416280
:10050000012030BD6D0D1560AFE7C16841F02001DD
:10051000C160EDE72DE9F05F0546006800244669FB
:10052000D0F804908768D0F80CB0D0F810A0D0F8BC
:100530001880F10748D0F90714D001218160B8076D
:1005400003D5284600F0C9F90CE0780702D54FF42E
:10055000006407E0380702D54FF4805402E02846D3
:1005600000F0BAF9F80516D529684FF48070886054
:10057000B80503D5284600F0B2F90CE0780502D59D
:1005800044F4005407E0380502D544F4804402E006
:10059000284600F0A3F9F80316D529684FF48030F7
:1005A0008860B80303D5284600F09BF90CE0780377
:1005B00002D544F4004407E0380302D544F4803403
:1005C00002E0284600F08CF9300707D55FEACB60DF
:1005D00004D52968102044F40074C86070074FF0F7
:1005E000080707D55FEA0B7004D52868C76028465E
:1005F00000F040F9B00706D52868C068800702D02F
:10060000284600F038F9700607D55FEACA6004D5BD
:100610002968102044F480640861B00607D55FEAB9
:100620000A7004D528680761284600F025F9F0060D
:1006300006D528680069800702D0284600F01DF919
:10064000B00308D55FEAC96005D529681020486065
:10065000284600F013F9F00307D55FEA097004D5C6
:1006600028684760284600F03DF9300446D55FEA27
:10067000497040D5F00504D55FEAC87001D044F058
:100680000104B00504D55FEA887001D544F0020486
:10069000700504D55FEA487001D544F004043005C4
:1006A00029D518F0700F26D008F07000402815D01A
:1006B00006DC102809D020280AD0302816D10AE0FC
:1006C00050280ED0602811D10EE044F008040DE04F
:1006D00044F010040AE044F0200407E044F0400431
:1006E00004E044F0800401E044F4807428688169E7
:1006F00021F070018161296804204860002C05D038
:10070000686A204368622846FFF78FFEBDE8F09FC5
:1007100070B5040003D094F8200010B104E001206B
:1007200070BD204600F082F82068016821F00201C7
:10073000016000F09FF90546052604E000F09AF9F3
:10074000401B0A2811D8206840688007F6D420682A
:10075000016841F00101016000F08CF905460BE0F1
:1007600000F088F9401B0A2806D9606A40F400307E
:10077000606284F82060D2E720684068C007EFD04C
:10078000207E0128206801683DD021F080010160B1
:10079000607E01282068016838D021F040010160A6
:1007A000A07E01282068016833D021F0200101607B
:1007B000E07E0128206801682ED041F01001016020
:1007C000207F01282068016829D021F008010160FC
:1007D000607F01282068016824D021F004010160B5
:1007E000D4E902010843D4E90412114308436168C3
:1007F000491E08432168C86100206062012084F816
:100800002000002070BD41F08001C0E741F04001B0
:10081000C5E741F02001CAE721F01001CFE741F020
:100820000801D4E741F00401D9E7000000B50068F1
:100830000E4987B0884217D10D48C16941F0007157
:10084000C161C069694600F0007005904FF4C05066
:1008500000900220019000200290032003900920C4
:100860000490C00600F040F807B000BD00640040EE
:100870000010024070477047704770477047000093
:1008800070B5044690F82000012804D0606A40F456
:100890000020606218E0022084F8200020680168CF
:1008A00021F00101016000F0E5F805460EE000BF0F
:1008B00000F0E0F8401B0A2808D9606A40F40030D4
:1008C0006062052084F82000012070BD2068406827
:1008D000C007EDD1606270BD7047704770477047C8
:1008E00070477047704700002DE9F84FDFF860B19E
:1008F00000234FF0010C4FF0030A4FF00F090BF1EA
:10090000040E9DE00CFA03F6344022007ED04C68C1
:10091000022C01D0122C0ED1DC0800EB8408D8F890
:1009200020405D07EF0E09FA07F5AC430D69BD40A5
:100930002543C8F8205007685D0091F804800AFA42
:1009400005F408F00308A74308FA05F848EA070881
:10095000C0F800804F68012F05D0022F03D0112F5F
:1009600001D0122F11D18768D1F80C80A74308FA63
:1009700005F848EA0708C0F808804768B7430E79C9
:10098000C6F300169E403E434660C668A6438C6888
:10099000AC403443C4604C68E40050D52D4CA5698C
:1009A00045F00105A561A46923F0030504F00104E5
:1009B0000094294C2E19B4689D072F0F09FA07F5EA
:1009C000AC43B0F1904F04D0244DA84203D101258F
:1009D0000CE000250AE0224DA84201D1022505E0E5
:1009E000204DA84201D1032500E00525BD40254347
:1009F000B560DBF800405D464E689443F60300D5D1
:100A000014432C607546DEF8004000E017E04E68A5
:100A10009443B60300D514432C600D4D08352C6863
:100A20004E689443F60200D514432C60084D0C35F3
:100A30002C684E689443B60200D514432C605B1CAE
:100A40000A681446DA407FF45DAFBDE8F88F000015
:100A50000004014000100240000001400004004872
:100A600000080048000C00480AB1816170478162AB
:100A70007047000001488068704700000C000020AB
:100A80000248816802781144816070470C000020A0
:100A9000074810B5016841F010010160032000F023
:100AA00095F8002000F006F800F024F8002010BDB2
:100AB0000020024070B50D4D04464FF47A7128783D
:100AC000B1FBF0F00A490968B1FBF0F000F03FFC1F
:100AD00048B9102C07D200222146501E00F056F8CB
:100AE00000206C6070BD012070BD00000C00002073
:100AF000180000201E4808B5816941F0010181619C
:100B0000816901F001010091C16941F08051C16129
:100B1000C06900F080500090032000F057F80022D8
:100B200011466FF00B0000F031F8002211466FF013
:100B30000A0000F02BF8002211466FF0090000F0C7
:100B400025F800221146501F00F020F8002211461F
:100B5000101F00F01BF800221146901E00F016F83E
:100B60000022BDE808401146501E00F00FB80000FA
:100B70000010024000F01F02012191404009800056
:100B800000F1E020C0F8001170470000F0B40E4BF7
:100B90001B680C46C3F30223C3F10705042D00D9DB
:100BA0000425191D072901D2002300E0DB1E0126C0
:100BB00006FA05F1491E214099409E40761E1640D6
:100BC0003143F0BC00F0FEBB0CED00E0064900F044
:100BD000070208684FF6FF03184040EA0220034A64
:100BE00010430860704700000CED00E00000FA05BB
:100BF0002DE9F0470F46050069D04A4E306800F0F5
:100C00000700B84209D2306820F00700384330604E
:100C1000306800F00700B84259D12878424C80076C
:100C200005D56068A96820F0F00008436060287866
:100C3000C0073DD06968012001290DD0022923D0C9
:100C40005FF0020393FAA3F2B2FA82F242F02002BA
:100C5000520904D0226803E04FF40033F2E7626ADD
:100C600093FAA3F3B3FA83F303F01F03984002420D
:100C70002DD0606820F0030008436060FFF7FAFEA3
:100C8000804641F288390CE04FF00073DAE700BF8C
:100C9000FFF7F0FEA0EB0801494502D90320BDE8AB
:100CA000F0876068696800F00C00B0EB810FEFD14D
:100CB000306800F00700B8420BD9306820F0070018
:100CC00038433060306800F00700B84201D001209E
:100CD000E5E72878400705D56068E96820F4E0601A
:100CE000084360602878000706D56068296920F409
:100CF000605040EAC100606000F022F86168F022B4
:100D000092FAA2F201F0F001B2FA82F2D140074A5F
:100D1000515CC840064908600020FFF7CBFE002068
:100D2000BDE700000020024000100240F815000856
:100D300018000020014800687047000018000020DB
:100D4000144B10B55A68144802F00C0104291DD048
:100D500008291BD14FF4701494FAA4F402F4701112
:100D6000B4FA84F4E1400D4CDB6A615C0F2494FA20
:100D7000A4F403F00F03B4FA84F4E340074C1034F6
:100D8000D203E35C03D5B0FBF3F0484310BD044845
:100D9000484310BD0010024000127A00D815000828
:100DA00000093D002DE9F84F040071D02078FB4D7B
:100DB000C0074FF0010625D068687704C0F38100B2
:100DC000012807D06868C0F3810002281BD1686839
:100DD000C00318D597FAA7F0B0FA80F040F02000D1
:100DE000400901D0286800E0686A97FAA7F1B1FAD3
:100DF00081F101F01F0106FA01F1084265D0606837
:100E00000028D2D061E06068B0F5803F0BD010B10F
:100E1000B0F5A02F17D0286820F48030286028680B
:100E200020F4802002E0286840F480302860E86ADE
:100E3000A16820F00F000843E862606820B3FFF764
:100E400019FE80460AE0286840F480202860EAE71E
:100E5000FFF710FEA0EB0800642872D897FAA7F0FD
:100E6000B0FA80F040F02000400901D0286800E08E
:100E7000686A97FAA7F1B1FA81F101F01F0106FA49
:100E800001F10842E4D020E0FFF7F4FD804607E0DE
:100E9000C7E000BFFFF7EEFDA0EB08006428DCD838
:100EA00097FAA7F0B0FA80F040F02000400901D096
:100EB000286800E0686A97FAA7F1B1FA81F101F0B9
:100EC0001F0106FA01F10842E4D12078DFF8D08250
:100ED00080074FF0000A4FF0020759D568684FF0BD
:100EE000F80B10F00C0F07D06868C0F381000228DF
:100EF0001BD16868C00318D497FAA7F0B0FA80F045
:100F000040F02000400901D0286800E0686A97FAA4
:100F1000A7F1B1FA81F101F01F0106FA01F10842CF
:100F20002BD0206901287CD127E0206988B396FA6C
:100F3000A6F0B0FA80F048F82060FFF79BFD8146EC
:100F400006E055E1FFF796FDA0EB0900022884D8E2
:100F500097FAA7F0B0FA80F040F02000400901D0E5
:100F6000286800E0686A97FAA7F1B1FA81F101F008
:100F70001F0106FA01F10842E4D028689BFAABF29F
:100F80006169B2FA82F220F0F800914008432860CB
:100F900025E0FFE796FAA6F1B1FA81F148F821A021
:100FA000FFF768FD814605E0FFF764FDA0EB09004F
:100FB0000228CCD897FAA7F0B0FA80F040F02000D1
:100FC000400901D0286800E0686A97FAA7F1B1FAF1
:100FD00081F101F01F0106FA01F10842E4D1207805
:100FE00000076AD5A069A0B396FAA6F0B0FA80F01F
:100FF00008EB8000C0F88064FFF73CFD814605E007
:10100000FFF738FDA0EB09000228A0D897FAA7F057
:10101000B0FA80F040F06000B6EB501F02D12868B3
:101020000CE077E197FAA7F0B0FA80F040F06000AA
:10103000B7EB501F01D1286A00E0686A97FAA7F160
:10104000B1FA81F101F01F0106FA01F21042D7D086
:1010500033E0FFE796FAA6F0B0FA80F008EB8000E4
:10106000C0F880A4FFF706FD814605E0FFF702FD0A
:10107000A0EB090002289CD897FAA7F0B0FA80F0FC
:1010800040F06000B6EB501F01D128680BE097FAE2
:10109000A7F0B0FA80F040F06000B7EB501F01D12C
:1010A000286A00E0686A97FAA7F1B1FA81F101F0C5
:1010B0001F0106FA01F21042D8D12078400774D5FA
:1010C000E8694FF00009C00009D4E86940F0805099
:1010D000E861E8694FF0010900F080500090314864
:1010E0000168C90512D4016841F480710160FFF7FD
:1010F000C1FC834606E000BFFFF7BCFCA0EB0B0081
:10110000642875D827480068C005F5D5E06801282F
:101110000AD008B1052811D0286A20F00100286201
:10112000286A20F0040002E0286A40F001002862EA
:10113000E068C8B3FFF79EFC83460DE0286A40F0E4
:1011400004002862F0E700BFFFF794FCA0EB0B015E
:1011500041F2883081424BD897FAA7F0B0FA80F07C
:1011600040F04000B6EB501F01D128680BE097FA21
:10117000A7F0B0FA80F040F04000B7EB501F01D16B
:10118000286A00E0686A97FAA7F1B1FA81F101F0E4
:101190001F0106FA01F21042D6D035E000100240DD
:1011A000000042420070004000E034E0FFF762FCC3
:1011B000834607E0FFF75EFCA0EB0B0141F28830AD
:1011C000814215D897FAA7F0B0FA80F040F04000BD
:1011D000B6EB501F01D128680CE097FAA7F0B0FADF
:1011E00080F040F04000B7EB501F02D1286A01E0C8
:1011F00083E0686A97FAA7F1B1FA81F101F01F0163
:1012000006FA01F21042D5D1B9F1000F03D0E86916
:1012100020F08050E861E06980B36968C1F3810122
:10122000022977D04FF080714F00022809D091FA3F
:10123000A1F0B0FA80F048F820A0FFF71BFC0446AC
:101240005EE050468A4691FAA1F1B1FA81F1C146B9
:1012500048F82100FFF70EFC804605E0FFF70AFC86
:10126000A0EB0800022848D897FAA7F0B0FA80F05F
:1012700040F02000400902D0286801E056E0686A8A
:1012800097FAA7F1B1FA81F101F01F0106FA01F115
:101290000842E3D1D4E908100843696821F47411C5
:1012A000084368609AFAAAF0B0FA80F049F8206022
:1012B000FFF7E0FB044604E0FFF7DCFB001B02281D
:1012C0001BD897FAA7F0B0FA80F040F02000400950
:1012D00001D0286800E0686A97FAA7F1B1FA81F1B5
:1012E00001F01F0106FA01F10842E5D01EE000BF3F
:1012F000FFF7C0FB001B022802D90320BDE8F88FCE
:1013000097FAA7F0B0FA80F040F02000400902D030
:10131000286801E00CE0686A97FAA7F1B1FA81F158
:1013200001F01F0106FA01F10842E1D10020E5E7D2
:101330000120E3E74FF0E0210428086903D020F002
:1013400004000861704740F00400FAE7704710B5E8
:10135000401EB0F1807F01D3012010BD4FF0E0248A
:1013600060610F21601700F02DF80020A0610720B8
:101370002061002010BD10B5FFF7E8FF10BDFEE7AB
:101380000E4810B50C49016010214160890681604A
:1013900000214FF48022C0E903124FF44012426151
:1013A000017641768176C17601774177FFF7B0F912
:1013B000002800D0FEE710BD006400401C000020A3
:1013C000FEE770470907090E002806DA00F00F0053
:1013D00000F1E02080F8141D704700F1E02080F853
:1013E000001470477047704710B5FFF749FBBDE820
:1013F0001040FFF7C0BF30B58FB002250120049028
:1014000000951020059000244FF44020CDE90840BD
:1014100007956846FFF7C6FC00B1FEE70F200A906B
:10142000CDE90B544FF48060CDE90D4000210AA8AE
:10143000FFF7DEFB00B1FEE7FFF77CFC4FF47A71AB
:10144000B0FBF1F0FFF783FF0420FFF773FF0022EA
:101450001146501EFFF79AFB0FB030BD14480168CB
:1014600041F4700101601348016841F0010101601D
:101470004168114A114041600168104A1140016001
:10148000016821F480210160416821F4FE0141607E
:10149000C16A21F00F01C162016B094A1140016369
:1014A000002181600249C003803908607047000054
:1014B00088ED00E0001002400CC07FF8FFFFF6FE50
:1014C000CCFC00FFFEE702E008C8121F08C1002A9A
:1014D000FAD170477047002001E001C1121F002AB5
:1014E000FBD1704786B0FFF7D3FA384800240421B7
:1014F000C460047584600460016118300125846053
:1015000001614038446004604461C56185610562E1
:101510000461FFF770FF2E48416941F400314161D9
:101520004069EE0300F400304FF090470590002230
:1015300031463846FFF798FA0096CDE901546946DE
:1015400038460394FFF7D0F9FFF71AFF002211463F
:101550001320FFF71BFB1320FFF70CFB00221146A3
:101560001420FFF713FB1420FFF704FB1748503833
:10157000FFF7CEF815492839A1F12800FEF7DEFE65
:1015800012485038FFF77CF9104801215038FEF717
:101590005EFE0E4804215038FEF759FE0D4C1F2503
:1015A0002F26257066703F270849A7704FF04F0817
:1015B000231D84F803801A1FA1F15000FEF759FE85
:1015C000404625706670A770E070FAE76C00002056
:1015D000001002400000002002030405060708096D
:1015E0000A0B0C0D0E0F101001020304050607086C
:1015F000090A0B0C0D0E0F10000000000000000087
:10160000010203040607080928160008000000204C
:101610001C000000C6140008441600081C0000202E
:1016200084040000D6140008000000000000000040
:101630000000000001000000100000000000000099
:0416400000127A001A
:040000050800018965
:00000001FF
